{
  "contractName": "Election",
  "abi": [
    {
      "constant": true,
      "inputs": [
        {
          "name": "",
          "type": "uint256"
        }
      ],
      "name": "vehicles",
      "outputs": [
        {
          "name": "id",
          "type": "uint256"
        },
        {
          "name": "fname",
          "type": "string"
        },
        {
          "name": "lname",
          "type": "string"
        },
        {
          "name": "vin",
          "type": "string"
        },
        {
          "name": "model",
          "type": "string"
        },
        {
          "name": "date",
          "type": "string"
        },
        {
          "name": "readCount",
          "type": "uint256"
        }
      ],
      "payable": false,
      "stateMutability": "view",
      "type": "function"
    },
    {
      "constant": true,
      "inputs": [
        {
          "name": "",
          "type": "address"
        }
      ],
      "name": "authorized",
      "outputs": [
        {
          "name": "",
          "type": "bool"
        }
      ],
      "payable": false,
      "stateMutability": "view",
      "type": "function"
    },
    {
      "constant": true,
      "inputs": [],
      "name": "vehiclesCount",
      "outputs": [
        {
          "name": "",
          "type": "uint256"
        }
      ],
      "payable": false,
      "stateMutability": "view",
      "type": "function"
    },
    {
      "inputs": [],
      "payable": false,
      "stateMutability": "nonpayable",
      "type": "constructor"
    },
    {
      "anonymous": false,
      "inputs": [
        {
          "indexed": true,
          "name": "_vehicleId",
          "type": "uint256"
        }
      ],
      "name": "votedEvent",
      "type": "event"
    },
    {
      "constant": false,
      "inputs": [
        {
          "name": "_vehicleId",
          "type": "uint256"
        }
      ],
      "name": "vote",
      "outputs": [],
      "payable": false,
      "stateMutability": "nonpayable",
      "type": "function"
    }
  ],
  "bytecode": "0x608060405234801561001057600080fd5b5060008060008061016760016040805190810160405280600681526020017f4e617468616e00000000000000000000000000000000000000000000000000008152506040805190810160405280600781526020017f4861646c6f636b00000000000000000000000000000000000000000000000000815250606060405190810160405280602181526020017f4a48445545554a31323338385538464a45424a5246554243445345573132343881526020017f38000000000000000000000000000000000000000000000000000000000000008152506040805190810160405280601481526020017f4d657263656465732d42656e7a2d45436c6173730000000000000000000000008152506040805190810160405280600a81526020017f30322f31342f31393935000000000000000000000000000000000000000000008152506000610478640100000000026401000000009004565b6102b760026040805190810160405280600381526020017f546f6d00000000000000000000000000000000000000000000000000000000008152506040805190810160405280600681526020017f4269736b75700000000000000000000000000000000000000000000000000000815250606060405190810160405280602181526020017f4a484158534151504f494957453837383337384a46484955524932335538523981526020017f30000000000000000000000000000000000000000000000000000000000000008152506040805190810160405280601181526020017f566f6c6b73776167656e2d46436c6173730000000000000000000000000000008152506040805190810160405280600a81526020017f30392f31362f32303030000000000000000000000000000000000000000000008152506000610478640100000000026401000000009004565b73d482940ba6b2429b38e634b50a954ea7803011d09350735629cb04722435ae2c85e37a1fd61f0af6ea4dc09250738586c212fdc0bf87dd6fd90ffec35b0c293018729150733cd7e4491244176e70239c92353f3f7f43146c8d905060016000808673ffffffffffffffffffffffffffffffffffffffff1673ffffffffffffffffffffffffffffffffffffffff16815260200190815260200160002060006101000a81548160ff02191690831515021790555060016000808573ffffffffffffffffffffffffffffffffffffffff1673ffffffffffffffffffffffffffffffffffffffff16815260200190815260200160002060006101000a81548160ff02191690831515021790555060008060008473ffffffffffffffffffffffffffffffffffffffff1673ffffffffffffffffffffffffffffffffffffffff16815260200190815260200160002060006101000a81548160ff02191690831515021790555060008060008373ffffffffffffffffffffffffffffffffffffffff1673ffffffffffffffffffffffffffffffffffffffff16815260200190815260200160002060006101000a81548160ff02191690831515021790555050505050610629565b60026000815480929190600101919050555060e060405190810160405280888152602001878152602001868152602001858152602001848152602001838152602001828152506001600060025481526020019081526020016000206000820151816000015560208201518160010190805190602001906104f9929190610584565b506040820151816002019080519060200190610516929190610584565b506060820151816003019080519060200190610533929190610584565b506080820151816004019080519060200190610550929190610584565b5060a082015181600501908051906020019061056d929190610584565b5060c0820151816006015590505050505050505050565b828054600181600116156101000203166002900490600052602060002090601f016020900481019282601f106105c557805160ff19168380011785556105f3565b828001600101855582156105f3579182015b828111156105f25782518255916020019190600101906105d7565b5b5090506106009190610604565b5090565b61062691905b8082111561062257600081600090555060010161060a565b5090565b90565b6107d4806106386000396000f300608060405260043610610062576000357c0100000000000000000000000000000000000000000000000000000000900463ffffffff1680630121b93f14610067578063b8ba95fa14610094578063b9181611146102f8578063ca53f3a514610353575b600080fd5b34801561007357600080fd5b506100926004803603810190808035906020019092919050505061037e565b005b3480156100a057600080fd5b506100bf60048036038101908080359060200190929190505050610448565b60405180888152602001806020018060200180602001806020018060200187815260200186810386528c818151815260200191508051906020019080838360005b8381101561011b578082015181840152602081019050610100565b50505050905090810190601f1680156101485780820380516001836020036101000a031916815260200191505b5086810385528b818151815260200191508051906020019080838360005b83811015610181578082015181840152602081019050610166565b50505050905090810190601f1680156101ae5780820380516001836020036101000a031916815260200191505b5086810384528a818151815260200191508051906020019080838360005b838110156101e75780820151818401526020810190506101cc565b50505050905090810190601f1680156102145780820380516001836020036101000a031916815260200191505b50868103835289818151815260200191508051906020019080838360005b8381101561024d578082015181840152602081019050610232565b50505050905090810190601f16801561027a5780820380516001836020036101000a031916815260200191505b50868103825288818151815260200191508051906020019080838360005b838110156102b3578082015181840152602081019050610298565b50505050905090810190601f1680156102e05780820380516001836020036101000a031916815260200191505b509c5050505050505050505050505060405180910390f35b34801561030457600080fd5b50610339600480360381019080803573ffffffffffffffffffffffffffffffffffffffff169060200190929190505050610782565b604051808215151515815260200191505060405180910390f35b34801561035f57600080fd5b506103686107a2565b6040518082815260200191505060405180910390f35b6000803373ffffffffffffffffffffffffffffffffffffffff1673ffffffffffffffffffffffffffffffffffffffff16815260200190815260200160002060009054906101000a900460ff1615156103d557600080fd5b6000811180156103e757506002548111155b15156103f257600080fd5b6001600082815260200190815260200160002060060160008154809291906001019190505550807ffff3c900d938d21d0990d786e819f29b8d05c1ef587b462b939609625b684b1660405160405180910390a250565b6001602052806000526040600020600091509050806000015490806001018054600181600116156101000203166002900480601f0160208091040260200160405190810160405280929190818152602001828054600181600116156101000203166002900480156104fa5780601f106104cf576101008083540402835291602001916104fa565b820191906000526020600020905b8154815290600101906020018083116104dd57829003601f168201915b505050505090806002018054600181600116156101000203166002900480601f0160208091040260200160405190810160405280929190818152602001828054600181600116156101000203166002900480156105985780601f1061056d57610100808354040283529160200191610598565b820191906000526020600020905b81548152906001019060200180831161057b57829003601f168201915b505050505090806003018054600181600116156101000203166002900480601f0160208091040260200160405190810160405280929190818152602001828054600181600116156101000203166002900480156106365780601f1061060b57610100808354040283529160200191610636565b820191906000526020600020905b81548152906001019060200180831161061957829003601f168201915b505050505090806004018054600181600116156101000203166002900480601f0160208091040260200160405190810160405280929190818152602001828054600181600116156101000203166002900480156106d45780601f106106a9576101008083540402835291602001916106d4565b820191906000526020600020905b8154815290600101906020018083116106b757829003601f168201915b505050505090806005018054600181600116156101000203166002900480601f0160208091040260200160405190810160405280929190818152602001828054600181600116156101000203166002900480156107725780601f1061074757610100808354040283529160200191610772565b820191906000526020600020905b81548152906001019060200180831161075557829003601f168201915b5050505050908060060154905087565b60006020528060005260406000206000915054906101000a900460ff1681565b600254815600a165627a7a723058209f29bd806b77d835bd1fa7756ad360c037316201f24e2078c39c1489b215f4630029",
  "source": "pragma solidity ^0.4.2;\n\ncontract Election {\n    // Model a Candidate\n    struct Vehicle {\n        uint id;\n        string fname;\n        string lname;        \n        string vin;        \n        string model;        \n        string date; //In 'mm/dd/yy' format  \n        uint readCount; //how many times your record has been read      \n    }\n\n    // Store accounts that have voted\n    mapping(address => bool) public authorized;\n    // Store Candidates\n    // Fetch Candidate\n    mapping(uint => Vehicle) public vehicles;\n    // Store Candidates Count\n    uint public vehiclesCount;\n\n    // voted event\n    event votedEvent (\n        uint indexed _vehicleId\n    );\n\n    function Election () public {\n\n        addVehicle(1, \"Nathan\", \"Hadlock\", \"JHDUEUJ12388U8FJEBJRFUBCDSEW12488\", \"Mercedes-Benz-EClass\", \"02/14/1995\", 0);\n        addVehicle(2, \"Tom\", \"Biskup\", \"JHAXSAQPOIIWE878378JFHIURI23U8R90\",\"Volkswagen-FClass\", \"09/16/2000\", 0);\n\n        // Authorize certain people\n        address admin = 0xD482940Ba6B2429b38E634B50A954EA7803011D0;\n        address admin2 = 0x5629cB04722435AE2C85e37a1Fd61f0AF6EA4dC0;\n        address peasant = 0x8586c212FDC0bf87dd6Fd90fFec35b0c29301872;\n        address peasant2 = 0x3CD7e4491244176E70239C92353F3f7f43146C8D;\n        authorized[admin] = true;\n        authorized[admin2] = true;\n        authorized[peasant] = false;\n        authorized[peasant2] = false;\n\n        \n    }\n\n    function addVehicle (uint _id, string _fname, string _lname, string _vin, string _model, string _date, uint _readCount) private {\n        vehiclesCount ++;\n        vehicles[vehiclesCount] = Vehicle(_id, _fname, _lname, _vin, _model, _date, _readCount);\n    }\n\n\n    function vote (uint _vehicleId) public {\n       \n        require(authorized[msg.sender]);\n\n\n        // require a valid candidate\n        require(_vehicleId > 0 && _vehicleId <= vehiclesCount);\n\n        // update candidate vote Count\n        vehicles[_vehicleId].readCount ++;\n\n        // trigger voted event\n        votedEvent(_vehicleId);\n    }\n}\n",
  "sourcePath": "/home/keerthana/Hackathon_Vehicle_ID/contracts/Election.sol",
  "compiler": {
    "name": "solc",
    "version": "0.4.24+commit.e67f0147.Emscripten.clang"
  },
  "schemaVersion": "2.0.0",
  "updatedAt": "2018-06-17T06:07:53.204Z"
}