{
  "contractName": "Election",
  "abi": [
    {
      "constant": true,
      "inputs": [
        {
          "name": "",
          "type": "uint256"
        }
      ],
      "name": "vehicles",
      "outputs": [
        {
          "name": "id",
          "type": "uint256"
        },
        {
          "name": "fname",
          "type": "string"
        },
        {
          "name": "lname",
          "type": "string"
        },
        {
          "name": "vin",
          "type": "string"
        },
        {
          "name": "model",
          "type": "string"
        },
        {
          "name": "date",
          "type": "string"
        },
        {
          "name": "readconfirm",
          "type": "string"
        },
        {
          "name": "readCount",
          "type": "uint256"
        }
      ],
      "payable": false,
      "stateMutability": "view",
      "type": "function"
    },
    {
      "constant": true,
      "inputs": [
        {
          "name": "",
          "type": "address"
        }
      ],
      "name": "authorized",
      "outputs": [
        {
          "name": "",
          "type": "bool"
        }
      ],
      "payable": false,
      "stateMutability": "view",
      "type": "function"
    },
    {
      "constant": true,
      "inputs": [],
      "name": "vehiclesCount",
      "outputs": [
        {
          "name": "",
          "type": "uint256"
        }
      ],
      "payable": false,
      "stateMutability": "view",
      "type": "function"
    },
    {
      "inputs": [],
      "payable": false,
      "stateMutability": "nonpayable",
      "type": "constructor"
    },
    {
      "anonymous": false,
      "inputs": [
        {
          "indexed": true,
          "name": "_vehicleId",
          "type": "uint256"
        }
      ],
      "name": "votedEvent",
      "type": "event"
    },
    {
      "constant": false,
      "inputs": [
        {
          "name": "_vehicleId",
          "type": "uint256"
        },
        {
          "name": "_name",
          "type": "string"
        },
        {
          "name": "_lastName",
          "type": "string"
        }
      ],
      "name": "update",
      "outputs": [],
      "payable": false,
      "stateMutability": "nonpayable",
      "type": "function"
    },
    {
      "constant": false,
      "inputs": [
        {
          "name": "_vehicleId",
          "type": "uint256"
        }
      ],
      "name": "read",
      "outputs": [],
      "payable": false,
      "stateMutability": "nonpayable",
      "type": "function"
    }
  ],
  "bytecode": "0x60806040523480156200001157600080fd5b50600080600080600080620001a360016040805190810160405280600681526020017f4e617468616e00000000000000000000000000000000000000000000000000008152506040805190810160405280600781526020017f4861646c6f636b00000000000000000000000000000000000000000000000000815250606060405190810160405280602181526020017f4a48445545554a31323338385538464a45424a5246554243445345573132343881526020017f38000000000000000000000000000000000000000000000000000000000000008152506040805190810160405280601481526020017f4d657263656465732d42656e7a2d45436c6173730000000000000000000000008152506040805190810160405280600a81526020017f30322f31342f31393935000000000000000000000000000000000000000000008152506040805190810160405280600181526020017f20000000000000000000000000000000000000000000000000000000000000008152506000620005cb640100000000026401000000009004565b6200032b60026040805190810160405280600381526020017f546f6d00000000000000000000000000000000000000000000000000000000008152506040805190810160405280600681526020017f4269736b75700000000000000000000000000000000000000000000000000000815250606060405190810160405280602181526020017f4a484158534151504f494957453837383337384a46484955524932335538523981526020017f30000000000000000000000000000000000000000000000000000000000000008152506040805190810160405280601181526020017f566f6c6b73776167656e2d46436c6173730000000000000000000000000000008152506040805190810160405280600a81526020017f30392f31362f32303030000000000000000000000000000000000000000000008152506040805190810160405280600181526020017f20000000000000000000000000000000000000000000000000000000000000008152506000620005cb640100000000026401000000009004565b735de32589bf4cafa976c062ba370cbd3eddbd595395507341979c70443714bb0a49294abd09653efae94ec5945073d82d10e270770e4ec46483a52577fe85e35472a99350738586c212fdc0bf87dd6fd90ffec35b0c293018729250733cd7e4491244176e70239c92353f3f7f43146c8d91507327a0a1541976e203edef3743b5f237e4da263f59905060016000808873ffffffffffffffffffffffffffffffffffffffff1673ffffffffffffffffffffffffffffffffffffffff16815260200190815260200160002060006101000a81548160ff02191690831515021790555060016000808773ffffffffffffffffffffffffffffffffffffffff1673ffffffffffffffffffffffffffffffffffffffff16815260200190815260200160002060006101000a81548160ff02191690831515021790555060016000808673ffffffffffffffffffffffffffffffffffffffff1673ffffffffffffffffffffffffffffffffffffffff16815260200190815260200160002060006101000a81548160ff02191690831515021790555060008060008573ffffffffffffffffffffffffffffffffffffffff1673ffffffffffffffffffffffffffffffffffffffff16815260200190815260200160002060006101000a81548160ff02191690831515021790555060008060008473ffffffffffffffffffffffffffffffffffffffff1673ffffffffffffffffffffffffffffffffffffffff16815260200190815260200160002060006101000a81548160ff02191690831515021790555060008060008373ffffffffffffffffffffffffffffffffffffffff1673ffffffffffffffffffffffffffffffffffffffff16815260200190815260200160002060006101000a81548160ff021916908315150217905550505050505050620007b7565b60026000815480929190600101919050555061010060405190810160405280898152602001888152602001878152602001868152602001858152602001848152602001838152602001828152506001600060025481526020019081526020016000206000820151816000015560208201518160010190805190602001906200065592919062000708565b5060408201518160020190805190602001906200067492919062000708565b5060608201518160030190805190602001906200069392919062000708565b506080820151816004019080519060200190620006b292919062000708565b5060a0820151816005019080519060200190620006d192919062000708565b5060c0820151816006019080519060200190620006f092919062000708565b5060e082015181600701559050505050505050505050565b828054600181600116156101000203166002900490600052602060002090601f016020900481019282601f106200074b57805160ff19168380011785556200077c565b828001600101855582156200077c579182015b828111156200077b5782518255916020019190600101906200075e565b5b5090506200078b91906200078f565b5090565b620007b491905b80821115620007b057600081600090555060010162000796565b5090565b90565b610b6080620007c76000396000f30060806040526004361061006d576000357c0100000000000000000000000000000000000000000000000000000000900463ffffffff168063b8ba95fa14610072578063b918161114610342578063ca53f3a51461039d578063ed2e5a97146103c8578063f95e0a54146103f5575b600080fd5b34801561007e57600080fd5b5061009d600480360381019080803590602001909291905050506104ae565b6040518089815260200180602001806020018060200180602001806020018060200188815260200187810387528e818151815260200191508051906020019080838360005b838110156100fd5780820151818401526020810190506100e2565b50505050905090810190601f16801561012a5780820380516001836020036101000a031916815260200191505b5087810386528d818151815260200191508051906020019080838360005b83811015610163578082015181840152602081019050610148565b50505050905090810190601f1680156101905780820380516001836020036101000a031916815260200191505b5087810385528c818151815260200191508051906020019080838360005b838110156101c95780820151818401526020810190506101ae565b50505050905090810190601f1680156101f65780820380516001836020036101000a031916815260200191505b5087810384528b818151815260200191508051906020019080838360005b8381101561022f578082015181840152602081019050610214565b50505050905090810190601f16801561025c5780820380516001836020036101000a031916815260200191505b5087810383528a818151815260200191508051906020019080838360005b8381101561029557808201518184015260208101905061027a565b50505050905090810190601f1680156102c25780820380516001836020036101000a031916815260200191505b50878103825289818151815260200191508051906020019080838360005b838110156102fb5780820151818401526020810190506102e0565b50505050905090810190601f1680156103285780820380516001836020036101000a031916815260200191505b509e50505050505050505050505050505060405180910390f35b34801561034e57600080fd5b50610383600480360381019080803573ffffffffffffffffffffffffffffffffffffffff169060200190929190505050610886565b604051808215151515815260200191505060405180910390f35b3480156103a957600080fd5b506103b26108a6565b6040518082815260200191505060405180910390f35b3480156103d457600080fd5b506103f3600480360381019080803590602001909291905050506108ac565b005b34801561040157600080fd5b506104ac60048036038101908080359060200190929190803590602001908201803590602001908080601f0160208091040260200160405190810160405280939291908181526020018383808284378201915050505050509192919290803590602001908201803590602001908080601f0160208091040260200160405190810160405280939291908181526020018383808284378201915050505050509192919290505050610993565b005b6001602052806000526040600020600091509050806000015490806001018054600181600116156101000203166002900480601f0160208091040260200160405190810160405280929190818152602001828054600181600116156101000203166002900480156105605780601f1061053557610100808354040283529160200191610560565b820191906000526020600020905b81548152906001019060200180831161054357829003601f168201915b505050505090806002018054600181600116156101000203166002900480601f0160208091040260200160405190810160405280929190818152602001828054600181600116156101000203166002900480156105fe5780601f106105d3576101008083540402835291602001916105fe565b820191906000526020600020905b8154815290600101906020018083116105e157829003601f168201915b505050505090806003018054600181600116156101000203166002900480601f01602080910402602001604051908101604052809291908181526020018280546001816001161561010002031660029004801561069c5780601f106106715761010080835404028352916020019161069c565b820191906000526020600020905b81548152906001019060200180831161067f57829003601f168201915b505050505090806004018054600181600116156101000203166002900480601f01602080910402602001604051908101604052809291908181526020018280546001816001161561010002031660029004801561073a5780601f1061070f5761010080835404028352916020019161073a565b820191906000526020600020905b81548152906001019060200180831161071d57829003601f168201915b505050505090806005018054600181600116156101000203166002900480601f0160208091040260200160405190810160405280929190818152602001828054600181600116156101000203166002900480156107d85780601f106107ad576101008083540402835291602001916107d8565b820191906000526020600020905b8154815290600101906020018083116107bb57829003601f168201915b505050505090806006018054600181600116156101000203166002900480601f0160208091040260200160405190810160405280929190818152602001828054600181600116156101000203166002900480156108765780601f1061084b57610100808354040283529160200191610876565b820191906000526020600020905b81548152906001019060200180831161085957829003601f168201915b5050505050908060070154905088565b60006020528060005260406000206000915054906101000a900460ff1681565b60025481565b6000803373ffffffffffffffffffffffffffffffffffffffff1673ffffffffffffffffffffffffffffffffffffffff16815260200190815260200160002060009054906101000a900460ff16151561090357600080fd5b6040805190810160405280601881526020017f57652063616e2072656164207375636365737366756c6c790000000000000000815250600160008381526020019081526020016000206006019080519060200190610962929190610a8f565b50807ffff3c900d938d21d0990d786e819f29b8d05c1ef587b462b939609625b684b1660405160405180910390a250565b6000803373ffffffffffffffffffffffffffffffffffffffff1673ffffffffffffffffffffffffffffffffffffffff16815260200190815260200160002060009054906101000a900460ff1615156109ea57600080fd5b81600160008581526020019081526020016000206001019080519060200190610a14929190610a8f565b5080600160008581526020019081526020016000206002019080519060200190610a3f929190610a8f565b50600083118015610a5257506002548311155b1515610a5d57600080fd5b827ffff3c900d938d21d0990d786e819f29b8d05c1ef587b462b939609625b684b1660405160405180910390a2505050565b828054600181600116156101000203166002900490600052602060002090601f016020900481019282601f10610ad057805160ff1916838001178555610afe565b82800160010185558215610afe579182015b82811115610afd578251825591602001919060010190610ae2565b5b509050610b0b9190610b0f565b5090565b610b3191905b80821115610b2d576000816000905550600101610b15565b5090565b905600a165627a7a72305820f3aaaeeb53ed1cc61cbc8dd32e303ca4e27baec1db6b9a4f63b34bf12152ecd30029",
  "source": "pragma solidity ^0.4.2;\n\ncontract Election {\n    // Model a vehicle\n    struct Vehicle {\n        uint id;\n        string fname;\n        string lname;        \n        string vin;        \n        string model;        \n        string date; //In 'mm/dd/yy' format  \n        string readconfirm;\n        uint readCount; //how many times your record has been read      \n    }\n\n    // Store accounts that have voted\n    mapping(address => bool) public authorized;\n    // Store Candidates\n    // Fetch vehicle\n    mapping(uint => Vehicle) public vehicles;\n    // Store Candidates Count\n    uint public vehiclesCount;\n\n    // voted event\n    event votedEvent (\n        uint indexed _vehicleId\n    );\n\n    function Election () public {\n\n        addVehicle(1, \"Nathan\", \"Hadlock\", \"JHDUEUJ12388U8FJEBJRFUBCDSEW12488\", \"Mercedes-Benz-EClass\", \"02/14/1995\", \" \", 0);\n        addVehicle(2, \"Tom\", \"Biskup\", \"JHAXSAQPOIIWE878378JFHIURI23U8R90\",\"Volkswagen-FClass\", \"09/16/2000\", \" \", 0);\n\n        // Authorize certain people\n\n\n        address nathanAuth = 0x5dE32589bf4cAfA976c062Ba370CBd3eddBD5953;\n        address keerthanaAuth = 0x41979C70443714bb0a49294ABd09653EfAE94Ec5;\n        address tomAuth = 0xd82d10e270770e4ec46483a52577FE85e35472A9;\n        address nathanNotAuth = 0x8586c212FDC0bf87dd6Fd90fFec35b0c29301872;\n        address keerthanaNotAuth = 0x3CD7e4491244176E70239C92353F3f7f43146C8D;\n        address tomNotAuth = 0x27A0a1541976E203EDef3743B5F237e4da263f59;\n        authorized[nathanAuth] = true;\n        authorized[keerthanaAuth] = true;\n        authorized[tomAuth] = true;\n        authorized[nathanNotAuth] = false;\n        authorized[keerthanaNotAuth] = false;\n        authorized[tomNotAuth] = false;\n\n        \n    }\n\n    function addVehicle (uint _id, string _fname, string _lname, string _vin, string _model, string _date, string _readconfirm, uint _readCount) private {\n        vehiclesCount ++;\n        vehicles[vehiclesCount] = Vehicle(_id, _fname, _lname, _vin, _model, _date, _readconfirm, _readCount);\n    }\n\n\n    function update (uint _vehicleId,  string _name, string _lastName) public {\n        // Check that the sender is authorized\n        require(authorized[msg.sender]);\n        vehicles[_vehicleId].fname = _name;\n        vehicles[_vehicleId].lname = _lastName;\n       \n        // require a valid candidate\n        require(_vehicleId > 0 && _vehicleId <= vehiclesCount);\n\n        // trigger voted event\n        votedEvent(_vehicleId);\n    }\n\n    function read (uint _vehicleId) public {\n        require(authorized[msg.sender]);\n        vehicles[_vehicleId].readconfirm = \"We can read successfully\";\n        votedEvent(_vehicleId);\n        \n    }\n}\n",
  "sourcePath": "/home/keerthana/Hackathon_Vehicle_ID/contracts/Election.sol",
  "compiler": {
    "name": "solc",
    "version": "0.4.24+commit.e67f0147.Emscripten.clang"
  },
  "schemaVersion": "2.0.0",
  "updatedAt": "2018-06-17T19:26:55.319Z"
}