{
  "contractName": "Election",
  "abi": [
    {
      "constant": true,
      "inputs": [
        {
          "name": "",
          "type": "uint256"
        }
      ],
      "name": "vehicles",
      "outputs": [
        {
          "name": "id",
          "type": "uint256"
        },
        {
          "name": "fname",
          "type": "string"
        },
        {
          "name": "lname",
          "type": "string"
        },
        {
          "name": "vin",
          "type": "string"
        },
        {
          "name": "model",
          "type": "string"
        },
        {
          "name": "date",
          "type": "string"
        },
        {
          "name": "readCount",
          "type": "uint256"
        }
      ],
      "payable": false,
      "stateMutability": "view",
      "type": "function"
    },
    {
      "constant": true,
      "inputs": [
        {
          "name": "",
          "type": "address"
        }
      ],
      "name": "authorized",
      "outputs": [
        {
          "name": "",
          "type": "bool"
        }
      ],
      "payable": false,
      "stateMutability": "view",
      "type": "function"
    },
    {
      "constant": true,
      "inputs": [],
      "name": "vehiclesCount",
      "outputs": [
        {
          "name": "",
          "type": "uint256"
        }
      ],
      "payable": false,
      "stateMutability": "view",
      "type": "function"
    },
    {
      "inputs": [],
      "payable": false,
      "stateMutability": "nonpayable",
      "type": "constructor"
    },
    {
      "anonymous": false,
      "inputs": [
        {
          "indexed": true,
          "name": "_vehicleId",
          "type": "uint256"
        }
      ],
      "name": "votedEvent",
      "type": "event"
    },
    {
      "constant": false,
      "inputs": [
        {
          "name": "_vehicleId",
          "type": "uint256"
        },
        {
          "name": "_fname",
          "type": "string"
        },
        {
          "name": "_lname",
          "type": "string"
        },
        {
          "name": "_vin",
          "type": "string"
        }
      ],
      "name": "update",
      "outputs": [],
      "payable": false,
      "stateMutability": "nonpayable",
      "type": "function"
    }
  ],
  "bytecode": "0x60806040523480156200001157600080fd5b506000806000806000806200016d60016040805190810160405280600681526020017f4e617468616e00000000000000000000000000000000000000000000000000008152506040805190810160405280600781526020017f4861646c6f636b00000000000000000000000000000000000000000000000000815250606060405190810160405280602181526020017f4a48445545554a31323338385538464a45424a5246554243445345573132343881526020017f38000000000000000000000000000000000000000000000000000000000000008152506040805190810160405280601481526020017f4d657263656465732d42656e7a2d45436c6173730000000000000000000000008152506040805190810160405280600a81526020017f30322f31342f313939350000000000000000000000000000000000000000000081525060006200055f640100000000026401000000009004565b620002bf60026040805190810160405280600381526020017f546f6d00000000000000000000000000000000000000000000000000000000008152506040805190810160405280600681526020017f4269736b75700000000000000000000000000000000000000000000000000000815250606060405190810160405280602181526020017f4a484158534151504f494957453837383337384a46484955524932335538523981526020017f30000000000000000000000000000000000000000000000000000000000000008152506040805190810160405280601181526020017f566f6c6b73776167656e2d46436c6173730000000000000000000000000000008152506040805190810160405280600a81526020017f30392f31362f323030300000000000000000000000000000000000000000000081525060006200055f640100000000026401000000009004565b735de32589bf4cafa976c062ba370cbd3eddbd595395507341979c70443714bb0a49294abd09653efae94ec5945073d82d10e270770e4ec46483a52577fe85e35472a99350738586c212fdc0bf87dd6fd90ffec35b0c293018729250733cd7e4491244176e70239c92353f3f7f43146c8d91507327a0a1541976e203edef3743b5f237e4da263f59905060016000808873ffffffffffffffffffffffffffffffffffffffff1673ffffffffffffffffffffffffffffffffffffffff16815260200190815260200160002060006101000a81548160ff02191690831515021790555060016000808773ffffffffffffffffffffffffffffffffffffffff1673ffffffffffffffffffffffffffffffffffffffff16815260200190815260200160002060006101000a81548160ff02191690831515021790555060016000808673ffffffffffffffffffffffffffffffffffffffff1673ffffffffffffffffffffffffffffffffffffffff16815260200190815260200160002060006101000a81548160ff02191690831515021790555060008060008573ffffffffffffffffffffffffffffffffffffffff1673ffffffffffffffffffffffffffffffffffffffff16815260200190815260200160002060006101000a81548160ff02191690831515021790555060008060008473ffffffffffffffffffffffffffffffffffffffff1673ffffffffffffffffffffffffffffffffffffffff16815260200190815260200160002060006101000a81548160ff02191690831515021790555060008060008373ffffffffffffffffffffffffffffffffffffffff1673ffffffffffffffffffffffffffffffffffffffff16815260200190815260200160002060006101000a81548160ff02191690831515021790555050505050505062000724565b60026000815480929190600101919050555060e06040519081016040528088815260200187815260200186815260200185815260200184815260200183815260200182815250600160006002548152602001908152602001600020600082015181600001556020820151816001019080519060200190620005e292919062000675565b5060408201518160020190805190602001906200060192919062000675565b5060608201518160030190805190602001906200062092919062000675565b5060808201518160040190805190602001906200063f92919062000675565b5060a08201518160050190805190602001906200065e92919062000675565b5060c0820151816006015590505050505050505050565b828054600181600116156101000203166002900490600052602060002090601f016020900481019282601f10620006b857805160ff1916838001178555620006e9565b82800160010185558215620006e9579182015b82811115620006e8578251825591602001919060010190620006cb565b5b509050620006f89190620006fc565b5090565b6200072191905b808211156200071d57600081600090555060010162000703565b5090565b90565b61097880620007346000396000f300608060405260043610610062576000357c0100000000000000000000000000000000000000000000000000000000900463ffffffff1680636522bff114610067578063b8ba95fa14610166578063b9181611146103ca578063ca53f3a514610425575b600080fd5b34801561007357600080fd5b5061016460048036038101908080359060200190929190803590602001908201803590602001908080601f0160208091040260200160405190810160405280939291908181526020018383808284378201915050505050509192919290803590602001908201803590602001908080601f0160208091040260200160405190810160405280939291908181526020018383808284378201915050505050509192919290803590602001908201803590602001908080601f0160208091040260200160405190810160405280939291908181526020018383808284378201915050505050509192919290505050610450565b005b34801561017257600080fd5b5061019160048036038101908080359060200190929190505050610547565b60405180888152602001806020018060200180602001806020018060200187815260200186810386528c818151815260200191508051906020019080838360005b838110156101ed5780820151818401526020810190506101d2565b50505050905090810190601f16801561021a5780820380516001836020036101000a031916815260200191505b5086810385528b818151815260200191508051906020019080838360005b83811015610253578082015181840152602081019050610238565b50505050905090810190601f1680156102805780820380516001836020036101000a031916815260200191505b5086810384528a818151815260200191508051906020019080838360005b838110156102b957808201518184015260208101905061029e565b50505050905090810190601f1680156102e65780820380516001836020036101000a031916815260200191505b50868103835289818151815260200191508051906020019080838360005b8381101561031f578082015181840152602081019050610304565b50505050905090810190601f16801561034c5780820380516001836020036101000a031916815260200191505b50868103825288818151815260200191508051906020019080838360005b8381101561038557808201518184015260208101905061036a565b50505050905090810190601f1680156103b25780820380516001836020036101000a031916815260200191505b509c5050505050505050505050505060405180910390f35b3480156103d657600080fd5b5061040b600480360381019080803573ffffffffffffffffffffffffffffffffffffffff169060200190929190505050610881565b604051808215151515815260200191505060405180910390f35b34801561043157600080fd5b5061043a6108a1565b6040518082815260200191505060405180910390f35b8260016000868152602001908152602001600020600101908051906020019061047a9291906108a7565b50816001600086815260200190815260200160002060020190805190602001906104a59291906108a7565b50806001600086815260200190815260200160002060030190805190602001906104d09291906108a7565b506000841180156104e357506002548411155b15156104ee57600080fd5b6001600085815260200190815260200160002060060160008154809291906001019190505550837ffff3c900d938d21d0990d786e819f29b8d05c1ef587b462b939609625b684b1660405160405180910390a250505050565b6001602052806000526040600020600091509050806000015490806001018054600181600116156101000203166002900480601f0160208091040260200160405190810160405280929190818152602001828054600181600116156101000203166002900480156105f95780601f106105ce576101008083540402835291602001916105f9565b820191906000526020600020905b8154815290600101906020018083116105dc57829003601f168201915b505050505090806002018054600181600116156101000203166002900480601f0160208091040260200160405190810160405280929190818152602001828054600181600116156101000203166002900480156106975780601f1061066c57610100808354040283529160200191610697565b820191906000526020600020905b81548152906001019060200180831161067a57829003601f168201915b505050505090806003018054600181600116156101000203166002900480601f0160208091040260200160405190810160405280929190818152602001828054600181600116156101000203166002900480156107355780601f1061070a57610100808354040283529160200191610735565b820191906000526020600020905b81548152906001019060200180831161071857829003601f168201915b505050505090806004018054600181600116156101000203166002900480601f0160208091040260200160405190810160405280929190818152602001828054600181600116156101000203166002900480156107d35780601f106107a8576101008083540402835291602001916107d3565b820191906000526020600020905b8154815290600101906020018083116107b657829003601f168201915b505050505090806005018054600181600116156101000203166002900480601f0160208091040260200160405190810160405280929190818152602001828054600181600116156101000203166002900480156108715780601f1061084657610100808354040283529160200191610871565b820191906000526020600020905b81548152906001019060200180831161085457829003601f168201915b5050505050908060060154905087565b60006020528060005260406000206000915054906101000a900460ff1681565b60025481565b828054600181600116156101000203166002900490600052602060002090601f016020900481019282601f106108e857805160ff1916838001178555610916565b82800160010185558215610916579182015b828111156109155782518255916020019190600101906108fa565b5b5090506109239190610927565b5090565b61094991905b8082111561094557600081600090555060010161092d565b5090565b905600a165627a7a7230582011f76a0bfd7a060c007af38b9de0bc6e2881a534ca694a626ecdff3f1de785290029",
  "source": "pragma solidity ^0.4.2;\n\ncontract Election {\n    // Model a vehicle\n    struct Vehicle {\n        uint id;\n        string fname;\n        string lname;        \n        string vin;        \n        string model;        \n        string date; //In 'mm/dd/yy' format  \n        uint readCount; //how many times your record has been read      \n    }\n\n    // Store accounts that have voted\n    mapping(address => bool) public authorized;\n    // Store Candidates\n    // Fetch vehicle\n    mapping(uint => Vehicle) public vehicles;\n    // Store Candidates Count\n    uint public vehiclesCount;\n\n    // voted event\n    event votedEvent (\n        uint indexed _vehicleId\n    );\n\n    function Election () public {\n\n        addVehicle(1, \"Nathan\", \"Hadlock\", \"JHDUEUJ12388U8FJEBJRFUBCDSEW12488\", \"Mercedes-Benz-EClass\", \"02/14/1995\", 0);\n        addVehicle(2, \"Tom\", \"Biskup\", \"JHAXSAQPOIIWE878378JFHIURI23U8R90\",\"Volkswagen-FClass\", \"09/16/2000\", 0);\n\n        // Authorize certain people\n\n        address nathanAuth = 0x5dE32589bf4cAfA976c062Ba370CBd3eddBD5953;\n        address keerthanaAuth = 0x41979C70443714bb0a49294ABd09653EfAE94Ec5;\n        address tomAuth = 0xd82d10e270770e4ec46483a52577FE85e35472A9;\n        address nathanNotAuth = 0x8586c212FDC0bf87dd6Fd90fFec35b0c29301872;\n        address keerthanaNotAuth = 0x3CD7e4491244176E70239C92353F3f7f43146C8D;\n        address tomNotAuth = 0x27A0a1541976E203EDef3743B5F237e4da263f59;\n        authorized[nathanAuth] = true;\n        authorized[keerthanaAuth] = true;\n        authorized[tomAuth] = true;\n        authorized[nathanNotAuth] = false;\n        authorized[keerthanaNotAuth] = false;\n        authorized[tomNotAuth] = false;\n\n        \n    }\n\n    function addVehicle (uint _id, string _fname, string _lname, string _vin, string _model, string _date, uint _readCount) private {\n        vehiclesCount ++;\n        vehicles[vehiclesCount] = Vehicle(_id, _fname, _lname, _vin, _model, _date, _readCount);\n    }\n\n\n    function update (uint _vehicleId,  string _fname, string _lname, string _vin) public {\n        // Check that the sender is authorized\n        //require(authorized[msg.sender]);\n        vehicles[_vehicleId].fname = _fname;\n        vehicles[_vehicleId].lname = _lname;\n        vehicles[_vehicleId].vin = _vin;\n\n        // require a valid candidate\n        require(_vehicleId > 0 && _vehicleId <= vehiclesCount);\n\n\t\t\t\tvehicles[_vehicleId].readCount ++;\n\n        // trigger voted event\n        votedEvent(_vehicleId);\n    }\n}\n",
  "sourcePath": "/home/tom/workspace/hackathons/Hackathon_Vehicle_ID/contracts/Election.sol",
  "compiler": {
    "name": "solc",
    "version": "0.4.24+commit.e67f0147.Emscripten.clang"
  },
  "schemaVersion": "2.0.0",
  "updatedAt": "2018-06-17T18:27:52.478Z"
}