{
  "contractName": "Election",
  "abi": [
    {
      "constant": true,
      "inputs": [],
      "name": "candidatesCount",
      "outputs": [
        {
          "name": "",
          "type": "uint256"
        }
      ],
      "payable": false,
      "stateMutability": "view",
      "type": "function"
    },
    {
      "constant": true,
      "inputs": [
        {
          "name": "",
          "type": "uint256"
        }
      ],
      "name": "candidates",
      "outputs": [
        {
          "name": "id",
          "type": "uint256"
        },
        {
          "name": "name",
          "type": "string"
        },
        {
          "name": "voteCount",
          "type": "uint256"
        },
        {
          "name": "vin",
          "type": "string"
        }
      ],
      "payable": false,
      "stateMutability": "view",
      "type": "function"
    },
    {
      "constant": true,
      "inputs": [
        {
          "name": "",
          "type": "address"
        }
      ],
      "name": "authorized",
      "outputs": [
        {
          "name": "",
          "type": "bool"
        }
      ],
      "payable": false,
      "stateMutability": "view",
      "type": "function"
    },
    {
      "inputs": [],
      "payable": false,
      "stateMutability": "nonpayable",
      "type": "constructor"
    },
    {
      "anonymous": false,
      "inputs": [
        {
          "indexed": true,
          "name": "_candidateId",
          "type": "uint256"
        }
      ],
      "name": "votedEvent",
      "type": "event"
    },
    {
      "constant": false,
      "inputs": [
        {
          "name": "_candidateId",
          "type": "uint256"
        },
        {
          "name": "_name",
          "type": "string"
        }
      ],
      "name": "vote",
      "outputs": [],
      "payable": false,
      "stateMutability": "nonpayable",
      "type": "function"
    }
  ],
  "bytecode": "0x608060405234801561001057600080fd5b5060008060008073f415156fa2540e1488ce57b7cc4f751642f7f90c9350735629cb04722435ae2c85e37a1fd61f0af6ea4dc09250738586c212fdc0bf87dd6fd90ffec35b0c293018729150733cd7e4491244176e70239c92353f3f7f43146c8d905060016000808673ffffffffffffffffffffffffffffffffffffffff1673ffffffffffffffffffffffffffffffffffffffff16815260200190815260200160002060006101000a81548160ff02191690831515021790555060016000808573ffffffffffffffffffffffffffffffffffffffff1673ffffffffffffffffffffffffffffffffffffffff16815260200190815260200160002060006101000a81548160ff02191690831515021790555060008060008473ffffffffffffffffffffffffffffffffffffffff1673ffffffffffffffffffffffffffffffffffffffff16815260200190815260200160002060006101000a81548160ff02191690831515021790555060008060008373ffffffffffffffffffffffffffffffffffffffff1673ffffffffffffffffffffffffffffffffffffffff16815260200190815260200160002060006101000a81548160ff0219169083151502179055506102526040805190810160405280600681526020017f4e617468616e00000000000000000000000000000000000000000000000000008152506040805190810160405280600781526020017f4861646c6f636b000000000000000000000000000000000000000000000000008152506102de640100000000026401000000009004565b6102d56040805190810160405280600381526020017f546f6d00000000000000000000000000000000000000000000000000000000008152506040805190810160405280600681526020017f4269736b757000000000000000000000000000000000000000000000000000008152506102de640100000000026401000000009004565b50505050610424565b6002600081548092919060010191905055506080604051908101604052806002548152602001838152602001600081526020018281525060016000600254815260200190815260200160002060008201518160000155602082015181600101908051906020019061035092919061037f565b5060408201518160020155606082015181600301908051906020019061037792919061037f565b509050505050565b828054600181600116156101000203166002900490600052602060002090601f016020900481019282601f106103c057805160ff19168380011785556103ee565b828001600101855582156103ee579182015b828111156103ed5782518255916020019190600101906103d2565b5b5090506103fb91906103ff565b5090565b61042191905b8082111561041d576000816000905550600101610405565b5090565b90565b6105cd806104336000396000f300608060405260043610610062576000357c0100000000000000000000000000000000000000000000000000000000900463ffffffff16806324108475146100675780632d35a8a2146100da5780633477ee2e14610105578063b918161114610225575b600080fd5b34801561007357600080fd5b506100d860048036038101908080359060200190929190803590602001908201803590602001908080601f0160208091040260200160405190810160405280939291908181526020018383808284378201915050505050509192919290505050610280565b005b3480156100e657600080fd5b506100ef610376565b6040518082815260200191505060405180910390f35b34801561011157600080fd5b506101306004803603810190808035906020019092919050505061037c565b604051808581526020018060200184815260200180602001838103835286818151815260200191508051906020019080838360005b83811015610180578082015181840152602081019050610165565b50505050905090810190601f1680156101ad5780820380516001836020036101000a031916815260200191505b50838103825284818151815260200191508051906020019080838360005b838110156101e65780820151818401526020810190506101cb565b50505050905090810190601f1680156102135780820380516001836020036101000a031916815260200191505b50965050505050505060405180910390f35b34801561023157600080fd5b50610266600480360381019080803573ffffffffffffffffffffffffffffffffffffffff1690602001909291905050506104dc565b604051808215151515815260200191505060405180910390f35b6000803373ffffffffffffffffffffffffffffffffffffffff1673ffffffffffffffffffffffffffffffffffffffff16815260200190815260200160002060009054906101000a900460ff1615156102d757600080fd5b806001600084815260200190815260200160002060010190805190602001906103019291906104fc565b5060008211801561031457506002548211155b151561031f57600080fd5b6001600083815260200190815260200160002060020160008154809291906001019190505550817ffff3c900d938d21d0990d786e819f29b8d05c1ef587b462b939609625b684b1660405160405180910390a25050565b60025481565b6001602052806000526040600020600091509050806000015490806001018054600181600116156101000203166002900480601f01602080910402602001604051908101604052809291908181526020018280546001816001161561010002031660029004801561042e5780601f106104035761010080835404028352916020019161042e565b820191906000526020600020905b81548152906001019060200180831161041157829003601f168201915b505050505090806002015490806003018054600181600116156101000203166002900480601f0160208091040260200160405190810160405280929190818152602001828054600181600116156101000203166002900480156104d25780601f106104a7576101008083540402835291602001916104d2565b820191906000526020600020905b8154815290600101906020018083116104b557829003601f168201915b5050505050905084565b60006020528060005260406000206000915054906101000a900460ff1681565b828054600181600116156101000203166002900490600052602060002090601f016020900481019282601f1061053d57805160ff191683800117855561056b565b8280016001018555821561056b579182015b8281111561056a57825182559160200191906001019061054f565b5b509050610578919061057c565b5090565b61059e91905b8082111561059a576000816000905550600101610582565b5090565b905600a165627a7a723058205d676bb5ea2d06ffa9debfbc319554ad55cb78989a25f5a15eeea331cc7143f10029",
  "source": "pragma solidity ^0.4.2;\n\ncontract Election {\n    // Model a Candidate\n    struct Candidate {\n        uint id;\n        string name;\n        uint voteCount;\n        string vin;\n    }\n\n    // Store accounts that have voted\n    mapping(address => bool) public authorized;\n    // Store Candidates\n    // Fetch Candidate\n    mapping(uint => Candidate) public candidates;\n    // Store Candidates Count\n    uint public candidatesCount;\n\n    // voted event\n    event votedEvent (\n        uint indexed _candidateId\n    );\n\n    function Election () public {\n        // Authorize certain people\n        address admin = 0xF415156fA2540e1488CE57B7CC4f751642f7f90c;\n        address admin2 = 0x5629cB04722435AE2C85e37a1Fd61f0AF6EA4dC0;\n        address peasant = 0x8586c212FDC0bf87dd6Fd90fFec35b0c29301872;\n        address peasant2 = 0x3CD7e4491244176E70239C92353F3f7f43146C8D;\n        authorized[admin] = true;\n        authorized[admin2] = true;\n        authorized[peasant] = false;\n        authorized[peasant2] = false;\n\n        // Defining authorized persons\n        addCandidate(\"Nathan\", \"Hadlock\");\n        addCandidate(\"Tom\", \"Biskup\");\n    }\n\n    function addCandidate (string _name, string _vin) private {\n        candidatesCount ++;\n        candidates[candidatesCount] = Candidate(candidatesCount, _name, 0, _vin);\n    }\n\n    function vote (uint _candidateId, string _name) public {\n        // Check that the sender is authorized\n        \n        require(authorized[msg.sender]);\n        candidates[_candidateId].name = _name;\n       \n\n        // require a valid candidate\n        require(_candidateId > 0 && _candidateId <= candidatesCount);\n\n        // update candidate vote Count\n        candidates[_candidateId].voteCount ++;\n\n        // trigger voted event\n        votedEvent(_candidateId);\n    }\n}\n",
  "sourcePath": "/Users/nathanielhadlock/Desktop/Hackathon_Vehicle_ID/contracts/Election.sol",
  "compiler": {
    "name": "solc",
    "version": "0.4.24+commit.e67f0147.Emscripten.clang"
  },
  "schemaVersion": "2.0.0",
  "updatedAt": "2018-06-17T15:58:05.176Z"
}