{
  "contractName": "Election",
  "abi": [
    {
      "constant": true,
      "inputs": [
        {
          "name": "",
          "type": "address"
        }
      ],
      "name": "voters",
      "outputs": [
        {
          "name": "",
          "type": "bool"
        }
      ],
      "payable": false,
      "stateMutability": "view",
      "type": "function"
    },
    {
      "constant": true,
      "inputs": [
        {
          "name": "",
          "type": "uint256"
        }
      ],
      "name": "vehicles",
      "outputs": [
        {
          "name": "id",
          "type": "string"
        },
        {
          "name": "fname",
          "type": "string"
        },
        {
          "name": "lname",
          "type": "string"
        },
        {
          "name": "vin",
          "type": "string"
        },
        {
          "name": "model",
          "type": "string"
        },
        {
          "name": "date",
          "type": "string"
        },
        {
          "name": "readCount",
          "type": "uint256"
        }
      ],
      "payable": false,
      "stateMutability": "view",
      "type": "function"
    },
    {
      "constant": true,
      "inputs": [],
      "name": "vehiclesCount",
      "outputs": [
        {
          "name": "",
          "type": "uint256"
        }
      ],
      "payable": false,
      "stateMutability": "view",
      "type": "function"
    },
    {
      "inputs": [],
      "payable": false,
      "stateMutability": "nonpayable",
      "type": "constructor"
    },
    {
      "anonymous": false,
      "inputs": [
        {
          "indexed": true,
          "name": "_vehicleId",
          "type": "uint256"
        }
      ],
      "name": "votedEvent",
      "type": "event"
    },
    {
      "constant": false,
      "inputs": [
        {
          "name": "_vehicleId",
          "type": "uint256"
        }
      ],
      "name": "vote",
      "outputs": [],
      "payable": false,
      "stateMutability": "nonpayable",
      "type": "function"
    }
  ],
  "bytecode": "0x60806040523480156200001157600080fd5b50620001986040805190810160405280600681526020017f41425934383500000000000000000000000000000000000000000000000000008152506040805190810160405280600681526020017f4e617468616e00000000000000000000000000000000000000000000000000008152506040805190810160405280600781526020017f4861646c6f636b00000000000000000000000000000000000000000000000000815250606060405190810160405280602181526020017f4a48445545554a31323338385538464a45424a5246554243445345573132343881526020017f38000000000000000000000000000000000000000000000000000000000000008152506040805190810160405280601481526020017f4d657263656465732d42656e7a2d45436c6173730000000000000000000000008152506040805190810160405280600a81526020017f30322f31342f3139393500000000000000000000000000000000000000000000815250600062000324640100000000026401000000009004565b6200031e6040805190810160405280600681526020017f43443637393500000000000000000000000000000000000000000000000000008152506040805190810160405280600381526020017f546f6d00000000000000000000000000000000000000000000000000000000008152506040805190810160405280600681526020017f4269736b75700000000000000000000000000000000000000000000000000000815250606060405190810160405280602181526020017f4a484158534151504f494957453837383337384a46484955524932335538523981526020017f30000000000000000000000000000000000000000000000000000000000000008152506040805190810160405280601181526020017f566f6c6b73776167656e2d46436c6173730000000000000000000000000000008152506040805190810160405280600a81526020017f30392f31362f3230303000000000000000000000000000000000000000000000815250600062000324640100000000026401000000009004565b620004fe565b60026000815480929190600101919050555060e0604051908101604052808881526020018781526020018681526020018581526020018481526020018381526020018281525060016000600254815260200190815260200160002060008201518160000190805190602001906200039d9291906200044f565b506020820151816001019080519060200190620003bc9291906200044f565b506040820151816002019080519060200190620003db9291906200044f565b506060820151816003019080519060200190620003fa9291906200044f565b506080820151816004019080519060200190620004199291906200044f565b5060a0820151816005019080519060200190620004389291906200044f565b5060c0820151816006015590505050505050505050565b828054600181600116156101000203166002900490600052602060002090601f016020900481019282601f106200049257805160ff1916838001178555620004c3565b82800160010185558215620004c3579182015b82811115620004c2578251825591602001919060010190620004a5565b5b509050620004d29190620004d6565b5090565b620004fb91905b80821115620004f7576000816000905550600101620004dd565b5090565b90565b610929806200050e6000396000f300608060405260043610610062576000357c0100000000000000000000000000000000000000000000000000000000900463ffffffff1680630121b93f14610067578063a3ec138d14610094578063b8ba95fa146100ef578063ca53f3a5146103b8575b600080fd5b34801561007357600080fd5b50610092600480360381019080803590602001909291905050506103e3565b005b3480156100a057600080fd5b506100d5600480360381019080803573ffffffffffffffffffffffffffffffffffffffff169060200190929190505050610505565b604051808215151515815260200191505060405180910390f35b3480156100fb57600080fd5b5061011a60048036038101908080359060200190929190505050610525565b6040518080602001806020018060200180602001806020018060200188815260200187810387528e818151815260200191508051906020019080838360005b83811015610174578082015181840152602081019050610159565b50505050905090810190601f1680156101a15780820380516001836020036101000a031916815260200191505b5087810386528d818151815260200191508051906020019080838360005b838110156101da5780820151818401526020810190506101bf565b50505050905090810190601f1680156102075780820380516001836020036101000a031916815260200191505b5087810385528c818151815260200191508051906020019080838360005b83811015610240578082015181840152602081019050610225565b50505050905090810190601f16801561026d5780820380516001836020036101000a031916815260200191505b5087810384528b818151815260200191508051906020019080838360005b838110156102a657808201518184015260208101905061028b565b50505050905090810190601f1680156102d35780820380516001836020036101000a031916815260200191505b5087810383528a818151815260200191508051906020019080838360005b8381101561030c5780820151818401526020810190506102f1565b50505050905090810190601f1680156103395780820380516001836020036101000a031916815260200191505b50878103825289818151815260200191508051906020019080838360005b83811015610372578082015181840152602081019050610357565b50505050905090810190601f16801561039f5780820380516001836020036101000a031916815260200191505b509d505050505050505050505050505060405180910390f35b3480156103c457600080fd5b506103cd6108f7565b6040518082815260200191505060405180910390f35b6000803373ffffffffffffffffffffffffffffffffffffffff1673ffffffffffffffffffffffffffffffffffffffff16815260200190815260200160002060009054906101000a900460ff1615151561043b57600080fd5b60008111801561044d57506002548111155b151561045857600080fd5b60016000803373ffffffffffffffffffffffffffffffffffffffff1673ffffffffffffffffffffffffffffffffffffffff16815260200190815260200160002060006101000a81548160ff0219169083151502179055506001600082815260200190815260200160002060060160008154809291906001019190505550807ffff3c900d938d21d0990d786e819f29b8d05c1ef587b462b939609625b684b1660405160405180910390a250565b60006020528060005260406000206000915054906101000a900460ff1681565b6001602052806000526040600020600091509050806000018054600181600116156101000203166002900480601f0160208091040260200160405190810160405280929190818152602001828054600181600116156101000203166002900480156105d15780601f106105a6576101008083540402835291602001916105d1565b820191906000526020600020905b8154815290600101906020018083116105b457829003601f168201915b505050505090806001018054600181600116156101000203166002900480601f01602080910402602001604051908101604052809291908181526020018280546001816001161561010002031660029004801561066f5780601f106106445761010080835404028352916020019161066f565b820191906000526020600020905b81548152906001019060200180831161065257829003601f168201915b505050505090806002018054600181600116156101000203166002900480601f01602080910402602001604051908101604052809291908181526020018280546001816001161561010002031660029004801561070d5780601f106106e25761010080835404028352916020019161070d565b820191906000526020600020905b8154815290600101906020018083116106f057829003601f168201915b505050505090806003018054600181600116156101000203166002900480601f0160208091040260200160405190810160405280929190818152602001828054600181600116156101000203166002900480156107ab5780601f10610780576101008083540402835291602001916107ab565b820191906000526020600020905b81548152906001019060200180831161078e57829003601f168201915b505050505090806004018054600181600116156101000203166002900480601f0160208091040260200160405190810160405280929190818152602001828054600181600116156101000203166002900480156108495780601f1061081e57610100808354040283529160200191610849565b820191906000526020600020905b81548152906001019060200180831161082c57829003601f168201915b505050505090806005018054600181600116156101000203166002900480601f0160208091040260200160405190810160405280929190818152602001828054600181600116156101000203166002900480156108e75780601f106108bc576101008083540402835291602001916108e7565b820191906000526020600020905b8154815290600101906020018083116108ca57829003601f168201915b5050505050908060060154905087565b600254815600a165627a7a7230582088d693676ede6de10cc0ee2e2bc6abc9c3431b63258bae39614f6a9ce2cf66290029",
  "source": "pragma solidity ^0.4.2;\n\ncontract Election {\n    // Model a Candidate\n    struct Vehicle {\n        string id;\n        string fname;\n        string lname;        \n        string vin;        \n        string model;        \n        string date; //In 'mm/dd/yy' format  \n        uint readCount; //how many times your record has been read      \n    }\n\n    // Store accounts that have voted\n    mapping(address => bool) public voters;\n    // Store Candidates\n    // Fetch Candidate\n    mapping(uint => Vehicle) public vehicles;\n    // Store Candidates Count\n    uint public vehiclesCount;\n\n    // voted event\n    event votedEvent (\n        uint indexed _vehicleId\n    );\n\n    function Election () public {\n        addVehicle(\"ABY485\", \"Nathan\", \"Hadlock\", \"JHDUEUJ12388U8FJEBJRFUBCDSEW12488\", \"Mercedes-Benz-EClass\", \"02/14/1995\", 0);\n        addVehicle(\"CD6795\", \"Tom\", \"Biskup\", \"JHAXSAQPOIIWE878378JFHIURI23U8R90\",\"Volkswagen-FClass\", \"09/16/2000\", 0);\n    }\n\n    function addVehicle (string _id, string _fname, string _lname, string _vin, string _model, string _date, uint _readCount) private {\n        vehiclesCount ++;\n        vehicles[vehiclesCount] = Vehicle(_id, _fname, _lname, _vin, _model, _date, _readCount);\n    }\n\n    function vote (uint _vehicleId) public {\n        // require that they haven't voted before\n        require(!voters[msg.sender]);\n\n        // require a valid candidate\n        require(_vehicleId > 0 && _vehicleId <= vehiclesCount);\n\n        // record that voter has voted\n        voters[msg.sender] = true;\n\n        // update candidate vote Count\n        vehicles[_vehicleId].readCount ++;\n\n        // trigger voted event\n        votedEvent(_vehicleId);\n    }\n}\n",
  "sourcePath": "/home/keerthana/Hackathon_Vehicle_ID/contracts/Election.sol",
  "compiler": {
    "name": "solc",
    "version": "0.4.24+commit.e67f0147.Emscripten.clang"
  },
  "schemaVersion": "2.0.0",
  "updatedAt": "2018-06-17T05:07:35.482Z"
}